{
  "_format": "hh-sol-artifact-1",
  "contractName": "SecretSpots",
  "sourceName": "contracts/SecretSpots.sol",
  "abi": [
    {
      "inputs": [],
      "stateMutability": "nonpayable",
      "type": "constructor"
    },
    {
      "inputs": [
        {
          "internalType": "address",
          "name": "owner",
          "type": "address"
        }
      ],
      "name": "OwnableInvalidOwner",
      "type": "error"
    },
    {
      "inputs": [
        {
          "internalType": "address",
          "name": "account",
          "type": "address"
        }
      ],
      "name": "OwnableUnauthorizedAccount",
      "type": "error"
    },
    {
      "inputs": [],
      "name": "ReentrancyGuardReentrantCall",
      "type": "error"
    },
    {
      "anonymous": false,
      "inputs": [
        {
          "indexed": true,
          "internalType": "address",
          "name": "user",
          "type": "address"
        },
        {
          "indexed": false,
          "internalType": "uint256",
          "name": "newLevel",
          "type": "uint256"
        }
      ],
      "name": "LevelUp",
      "type": "event"
    },
    {
      "anonymous": false,
      "inputs": [
        {
          "indexed": true,
          "internalType": "address",
          "name": "previousOwner",
          "type": "address"
        },
        {
          "indexed": true,
          "internalType": "address",
          "name": "newOwner",
          "type": "address"
        }
      ],
      "name": "OwnershipTransferred",
      "type": "event"
    },
    {
      "anonymous": false,
      "inputs": [
        {
          "indexed": true,
          "internalType": "address",
          "name": "creator",
          "type": "address"
        },
        {
          "indexed": false,
          "internalType": "uint256",
          "name": "amount",
          "type": "uint256"
        }
      ],
      "name": "RewardSent",
      "type": "event"
    },
    {
      "anonymous": false,
      "inputs": [
        {
          "indexed": true,
          "internalType": "uint256",
          "name": "spotId",
          "type": "uint256"
        },
        {
          "indexed": true,
          "internalType": "address",
          "name": "creator",
          "type": "address"
        },
        {
          "indexed": false,
          "internalType": "string",
          "name": "username",
          "type": "string"
        }
      ],
      "name": "SpotCreated",
      "type": "event"
    },
    {
      "anonymous": false,
      "inputs": [
        {
          "indexed": true,
          "internalType": "uint256",
          "name": "spotId",
          "type": "uint256"
        },
        {
          "indexed": true,
          "internalType": "address",
          "name": "creator",
          "type": "address"
        }
      ],
      "name": "SpotDeleted",
      "type": "event"
    },
    {
      "anonymous": false,
      "inputs": [
        {
          "indexed": true,
          "internalType": "uint256",
          "name": "spotId",
          "type": "uint256"
        },
        {
          "indexed": true,
          "internalType": "address",
          "name": "voter",
          "type": "address"
        },
        {
          "indexed": false,
          "internalType": "bool",
          "name": "isUpvote",
          "type": "bool"
        }
      ],
      "name": "SpotVoted",
      "type": "event"
    },
    {
      "anonymous": false,
      "inputs": [
        {
          "indexed": true,
          "internalType": "address",
          "name": "user",
          "type": "address"
        },
        {
          "indexed": false,
          "internalType": "string",
          "name": "username",
          "type": "string"
        }
      ],
      "name": "UserRegistered",
      "type": "event"
    },
    {
      "inputs": [],
      "name": "REWARD_PER_UPVOTE",
      "outputs": [
        {
          "internalType": "uint256",
          "name": "",
          "type": "uint256"
        }
      ],
      "stateMutability": "view",
      "type": "function"
    },
    {
      "inputs": [
        {
          "internalType": "enum SecretSpots.SpotCategory",
          "name": "_category",
          "type": "uint8"
        }
      ],
      "name": "createSpot",
      "outputs": [],
      "stateMutability": "nonpayable",
      "type": "function"
    },
    {
      "inputs": [
        {
          "internalType": "uint256",
          "name": "_spotId",
          "type": "uint256"
        }
      ],
      "name": "deleteSpot",
      "outputs": [],
      "stateMutability": "nonpayable",
      "type": "function"
    },
    {
      "inputs": [
        {
          "internalType": "address",
          "name": "",
          "type": "address"
        },
        {
          "internalType": "uint256",
          "name": "",
          "type": "uint256"
        }
      ],
      "name": "hasVoted",
      "outputs": [
        {
          "internalType": "bool",
          "name": "",
          "type": "bool"
        }
      ],
      "stateMutability": "view",
      "type": "function"
    },
    {
      "inputs": [],
      "name": "owner",
      "outputs": [
        {
          "internalType": "address",
          "name": "",
          "type": "address"
        }
      ],
      "stateMutability": "view",
      "type": "function"
    },
    {
      "inputs": [
        {
          "internalType": "string",
          "name": "_username",
          "type": "string"
        }
      ],
      "name": "registerUser",
      "outputs": [],
      "stateMutability": "nonpayable",
      "type": "function"
    },
    {
      "inputs": [],
      "name": "renounceOwnership",
      "outputs": [],
      "stateMutability": "nonpayable",
      "type": "function"
    },
    {
      "inputs": [],
      "name": "spotCounter",
      "outputs": [
        {
          "internalType": "uint256",
          "name": "",
          "type": "uint256"
        }
      ],
      "stateMutability": "view",
      "type": "function"
    },
    {
      "inputs": [
        {
          "internalType": "uint256",
          "name": "",
          "type": "uint256"
        }
      ],
      "name": "spots",
      "outputs": [
        {
          "internalType": "uint256",
          "name": "id",
          "type": "uint256"
        },
        {
          "internalType": "address",
          "name": "creator",
          "type": "address"
        },
        {
          "internalType": "string",
          "name": "username",
          "type": "string"
        },
        {
          "internalType": "enum SecretSpots.SpotCategory",
          "name": "category",
          "type": "uint8"
        },
        {
          "internalType": "uint256",
          "name": "upvotes",
          "type": "uint256"
        },
        {
          "internalType": "uint256",
          "name": "downvotes",
          "type": "uint256"
        },
        {
          "internalType": "uint256",
          "name": "timestamp",
          "type": "uint256"
        },
        {
          "internalType": "bool",
          "name": "isActive",
          "type": "bool"
        }
      ],
      "stateMutability": "view",
      "type": "function"
    },
    {
      "inputs": [
        {
          "internalType": "address",
          "name": "newOwner",
          "type": "address"
        }
      ],
      "name": "transferOwnership",
      "outputs": [],
      "stateMutability": "nonpayable",
      "type": "function"
    },
    {
      "inputs": [
        {
          "internalType": "address",
          "name": "",
          "type": "address"
        }
      ],
      "name": "users",
      "outputs": [
        {
          "internalType": "bool",
          "name": "isRegistered",
          "type": "bool"
        },
        {
          "internalType": "string",
          "name": "username",
          "type": "string"
        },
        {
          "internalType": "uint256",
          "name": "credibilityScore",
          "type": "uint256"
        },
        {
          "internalType": "uint256",
          "name": "level",
          "type": "uint256"
        }
      ],
      "stateMutability": "view",
      "type": "function"
    },
    {
      "inputs": [
        {
          "internalType": "uint256",
          "name": "_spotId",
          "type": "uint256"
        },
        {
          "internalType": "bool",
          "name": "_isUpvote",
          "type": "bool"
        }
      ],
      "name": "voteSpot",
      "outputs": [],
      "stateMutability": "payable",
      "type": "function"
    },
    {
      "inputs": [],
      "name": "withdrawFunds",
      "outputs": [],
      "stateMutability": "nonpayable",
      "type": "function"
    },
    {
      "stateMutability": "payable",
      "type": "receive"
    }
  ],
  "bytecode": "0x608060405234801561001057600080fd5b5033600073ffffffffffffffffffffffffffffffffffffffff168173ffffffffffffffffffffffffffffffffffffffff16036100845760006040517f1e4fbdf700000000000000000000000000000000000000000000000000000000815260040161007b91906101a5565b60405180910390fd5b610093816100a060201b60201c565b50600180819055506101c0565b60008060009054906101000a900473ffffffffffffffffffffffffffffffffffffffff169050816000806101000a81548173ffffffffffffffffffffffffffffffffffffffff021916908373ffffffffffffffffffffffffffffffffffffffff1602179055508173ffffffffffffffffffffffffffffffffffffffff168173ffffffffffffffffffffffffffffffffffffffff167f8be0079c531659141344cd1fd0a4f28419497f9722a3daafe3b4186f6b6457e060405160405180910390a35050565b600073ffffffffffffffffffffffffffffffffffffffff82169050919050565b600061018f82610164565b9050919050565b61019f81610184565b82525050565b60006020820190506101ba6000830184610196565b92915050565b612653806101cf6000396000f3fe6080604052600436106100c65760003560e01c8063715018a61161007f578063a87430ba11610059578063a87430ba14610252578063c45b945314610292578063eaf99b6b146102ae578063f2fde38b146102d9576100cd565b8063715018a6146101e757806372f2fa1c146101fe5780638da5cb5b14610227576100cd565b806306de79f8146100d2578063145a8bdf146100fb57806324600fc31461013f578063425458251461015657806357716f9a14610193578063704f1b94146101be576100cd565b366100cd57005b600080fd5b3480156100de57600080fd5b506100f960048036038101906100f49190611734565b610302565b005b34801561010757600080fd5b50610122600480360381019061011d9190611734565b6105a7565b6040516101369897969594939291906118d3565b60405180910390f35b34801561014b57600080fd5b506101546106b1565b005b34801561016257600080fd5b5061017d60048036038101906101789190611984565b610752565b60405161018a91906119c4565b60405180910390f35b34801561019f57600080fd5b506101a8610781565b6040516101b591906119df565b60405180910390f35b3480156101ca57600080fd5b506101e560048036038101906101e09190611a5f565b610787565b005b3480156101f357600080fd5b506101fc610961565b005b34801561020a57600080fd5b5061022560048036038101906102209190611ad1565b610975565b005b34801561023357600080fd5b5061023c610cd1565b6040516102499190611afe565b60405180910390f35b34801561025e57600080fd5b5061027960048036038101906102749190611b19565b610cfa565b6040516102899493929190611b46565b60405180910390f35b6102ac60048036038101906102a79190611bbe565b610dbf565b005b3480156102ba57600080fd5b506102c3611378565b6040516102d091906119df565b60405180910390f35b3480156102e557600080fd5b5061030060048036038101906102fb9190611b19565b611383565b005b600260003373ffffffffffffffffffffffffffffffffffffffff1673ffffffffffffffffffffffffffffffffffffffff16815260200190815260200160002060000160009054906101000a900460ff16610391576040517f08c379a000000000000000000000000000000000000000000000000000000000815260040161038890611c4a565b60405180910390fd5b60055481111580156103a35750600081115b6103e2576040517f08c379a00000000000000000000000000000000000000000000000000000000081526004016103d990611cb6565b60405180910390fd5b60006003600083815260200190815260200160002090503373ffffffffffffffffffffffffffffffffffffffff168160010160009054906101000a900473ffffffffffffffffffffffffffffffffffffffff1673ffffffffffffffffffffffffffffffffffffffff161461048b576040517f08c379a000000000000000000000000000000000000000000000000000000000815260040161048290611d48565b60405180910390fd5b8060070160009054906101000a900460ff166104dc576040517f08c379a00000000000000000000000000000000000000000000000000000000081526004016104d390611db4565b60405180910390fd5b8060040154600260003373ffffffffffffffffffffffffffffffffffffffff1673ffffffffffffffffffffffffffffffffffffffff16815260200190815260200160002060020160008282546105329190611e03565b9250508190555061054233611409565b60008160070160006101000a81548160ff0219169083151502179055503373ffffffffffffffffffffffffffffffffffffffff16827f6b3db447358e2c4e0922c96bacda9fa322b5bcd4b20b33487e6d54bf006bfd9060405160405180910390a35050565b60036020528060005260406000206000915090508060000154908060010160009054906101000a900473ffffffffffffffffffffffffffffffffffffffff16908060020180546105f690611e66565b80601f016020809104026020016040519081016040528092919081815260200182805461062290611e66565b801561066f5780601f106106445761010080835404028352916020019161066f565b820191906000526020600020905b81548152906001019060200180831161065257829003601f168201915b5050505050908060030160009054906101000a900460ff16908060040154908060050154908060060154908060070160009054906101000a900460ff16905088565b6106b9611552565b600047905060008111610701576040517f08c379a00000000000000000000000000000000000000000000000000000000081526004016106f890611ee3565b60405180910390fd5b610709610cd1565b73ffffffffffffffffffffffffffffffffffffffff166108fc829081150290604051600060405180830381858888f1935050505015801561074e573d6000803e3d6000fd5b5050565b60046020528160005260406000206020528060005260406000206000915091509054906101000a900460ff1681565b60055481565b600260003373ffffffffffffffffffffffffffffffffffffffff1673ffffffffffffffffffffffffffffffffffffffff16815260200190815260200160002060000160009054906101000a900460ff1615610817576040517f08c379a000000000000000000000000000000000000000000000000000000000815260040161080e90611f4f565b60405180910390fd5b604051806080016040528060011515815260200183838080601f016020809104026020016040519081016040528093929190818152602001838380828437600081840152601f19601f820116905080830192505050505050508152602001600081526020016001815250600260003373ffffffffffffffffffffffffffffffffffffffff1673ffffffffffffffffffffffffffffffffffffffff16815260200190815260200160002060008201518160000160006101000a81548160ff02191690831515021790555060208201518160010190816108f5919061214a565b5060408201518160020155606082015181600301559050503373ffffffffffffffffffffffffffffffffffffffff167f48cac28ad4dc618e15f4c2dd5e97751182f166de97b25618318b2112aa951a2f8383604051610955929190612258565b60405180910390a25050565b610969611552565b61097360006115d9565b565b600260003373ffffffffffffffffffffffffffffffffffffffff1673ffffffffffffffffffffffffffffffffffffffff16815260200190815260200160002060000160009054906101000a900460ff16610a04576040517f08c379a00000000000000000000000000000000000000000000000000000000081526004016109fb90611c4a565b60405180910390fd5b60056000815480929190610a179061227c565b919050555060405180610100016040528060055481526020013373ffffffffffffffffffffffffffffffffffffffff168152602001600260003373ffffffffffffffffffffffffffffffffffffffff1673ffffffffffffffffffffffffffffffffffffffff1681526020019081526020016000206001018054610a9990611e66565b80601f0160208091040260200160405190810160405280929190818152602001828054610ac590611e66565b8015610b125780601f10610ae757610100808354040283529160200191610b12565b820191906000526020600020905b815481529060010190602001808311610af557829003601f168201915b50505050508152602001826007811115610b2f57610b2e611841565b5b81526020016000815260200160008152602001428152602001600115158152506003600060055481526020019081526020016000206000820151816000015560208201518160010160006101000a81548173ffffffffffffffffffffffffffffffffffffffff021916908373ffffffffffffffffffffffffffffffffffffffff1602179055506040820151816002019081610bca919061214a565b5060608201518160030160006101000a81548160ff02191690836007811115610bf657610bf5611841565b5b02179055506080820151816004015560a0820151816005015560c0820151816006015560e08201518160070160006101000a81548160ff0219169083151502179055509050503373ffffffffffffffffffffffffffffffffffffffff166005547fc322e0da872c1a7a7f5d4dbcad000fcc8a382fed4dcfca2c07d0418ee60c0836600260003373ffffffffffffffffffffffffffffffffffffffff1673ffffffffffffffffffffffffffffffffffffffff168152602001908152602001600020600101604051610cc69190612348565b60405180910390a350565b60008060009054906101000a900473ffffffffffffffffffffffffffffffffffffffff16905090565b60026020528060005260406000206000915090508060000160009054906101000a900460ff1690806001018054610d3090611e66565b80601f0160208091040260200160405190810160405280929190818152602001828054610d5c90611e66565b8015610da95780601f10610d7e57610100808354040283529160200191610da9565b820191906000526020600020905b815481529060010190602001808311610d8c57829003601f168201915b5050505050908060020154908060030154905084565b600260003373ffffffffffffffffffffffffffffffffffffffff1673ffffffffffffffffffffffffffffffffffffffff16815260200190815260200160002060000160009054906101000a900460ff16610e4e576040517f08c379a0000000000000000000000000000000000000000000000000000000008152600401610e4590611c4a565b60405180910390fd5b610e5661169d565b6005548211158015610e685750600082115b610ea7576040517f08c379a0000000000000000000000000000000000000000000000000000000008152600401610e9e90611cb6565b60405180910390fd5b600460003373ffffffffffffffffffffffffffffffffffffffff1673ffffffffffffffffffffffffffffffffffffffff168152602001908152602001600020600083815260200190815260200160002060009054906101000a900460ff1615610f45576040517f08c379a0000000000000000000000000000000000000000000000000000000008152600401610f3c906123b6565b60405180910390fd5b3373ffffffffffffffffffffffffffffffffffffffff166003600084815260200190815260200160002060010160009054906101000a900473ffffffffffffffffffffffffffffffffffffffff1673ffffffffffffffffffffffffffffffffffffffff1603610fe9576040517f08c379a0000000000000000000000000000000000000000000000000000000008152600401610fe090612422565b60405180910390fd5b600060036000848152602001908152602001600020905060008160010160009054906101000a900473ffffffffffffffffffffffffffffffffffffffff16905082156111ea57662386f26fc100003414611078576040517f08c379a000000000000000000000000000000000000000000000000000000000815260040161106f9061248e565b60405180910390fd5b60008173ffffffffffffffffffffffffffffffffffffffff163460405161109e906124df565b60006040518083038185875af1925050503d80600081146110db576040519150601f19603f3d011682016040523d82523d6000602084013e6110e0565b606091505b5050905080611124576040517f08c379a000000000000000000000000000000000000000000000000000000000815260040161111b90612540565b60405180910390fd5b8260040160008154809291906111399061227c565b9190505550600260008373ffffffffffffffffffffffffffffffffffffffff1673ffffffffffffffffffffffffffffffffffffffff16815260200190815260200160002060020160008154809291906111919061227c565b91905055508173ffffffffffffffffffffffffffffffffffffffff167f6177f4110771217c72937d51f3a73915f2c714a6b98507e17eea7a186136a24a346040516111dc91906119df565b60405180910390a2506112a9565b8160050160008154809291906111ff9061227c565b91905055506000600260008373ffffffffffffffffffffffffffffffffffffffff1673ffffffffffffffffffffffffffffffffffffffff1681526020019081526020016000206002015411156112a857600260008273ffffffffffffffffffffffffffffffffffffffff1673ffffffffffffffffffffffffffffffffffffffff16815260200190815260200160002060020160008154809291906112a290612560565b91905055505b5b6001600460003373ffffffffffffffffffffffffffffffffffffffff1673ffffffffffffffffffffffffffffffffffffffff168152602001908152602001600020600086815260200190815260200160002060006101000a81548160ff02191690831515021790555061131b81611409565b3373ffffffffffffffffffffffffffffffffffffffff16847fb41d0db7be64700f3e443e87ce16f97a3253d50c5354b35f9c1b16d1bc73a9848560405161136291906119c4565b60405180910390a350506113746116e3565b5050565b662386f26fc1000081565b61138b611552565b600073ffffffffffffffffffffffffffffffffffffffff168173ffffffffffffffffffffffffffffffffffffffff16036113fd5760006040517f1e4fbdf70000000000000000000000000000000000000000000000000000000081526004016113f49190611afe565b60405180910390fd5b611406816115d9565b50565b6000600260008373ffffffffffffffffffffffffffffffffffffffff1673ffffffffffffffffffffffffffffffffffffffff168152602001908152602001600020600301549050600060016064600260008673ffffffffffffffffffffffffffffffffffffffff1673ffffffffffffffffffffffffffffffffffffffff168152602001908152602001600020600201546114a391906125b8565b6114ad91906125e9565b90508181111561154d5780600260008573ffffffffffffffffffffffffffffffffffffffff1673ffffffffffffffffffffffffffffffffffffffff168152602001908152602001600020600301819055508273ffffffffffffffffffffffffffffffffffffffff167f91e51c29e7e87a74ad3b8ccba98538970f50a4309242735467f41e27c6b0fbac8260405161154491906119df565b60405180910390a25b505050565b61155a6116ec565b73ffffffffffffffffffffffffffffffffffffffff16611578610cd1565b73ffffffffffffffffffffffffffffffffffffffff16146115d75761159b6116ec565b6040517f118cdaa70000000000000000000000000000000000000000000000000000000081526004016115ce9190611afe565b60405180910390fd5b565b60008060009054906101000a900473ffffffffffffffffffffffffffffffffffffffff169050816000806101000a81548173ffffffffffffffffffffffffffffffffffffffff021916908373ffffffffffffffffffffffffffffffffffffffff1602179055508173ffffffffffffffffffffffffffffffffffffffff168173ffffffffffffffffffffffffffffffffffffffff167f8be0079c531659141344cd1fd0a4f28419497f9722a3daafe3b4186f6b6457e060405160405180910390a35050565b6002600154036116d9576040517f3ee5aeb500000000000000000000000000000000000000000000000000000000815260040160405180910390fd5b6002600181905550565b60018081905550565b600033905090565b600080fd5b600080fd5b6000819050919050565b611711816116fe565b811461171c57600080fd5b50565b60008135905061172e81611708565b92915050565b60006020828403121561174a576117496116f4565b5b60006117588482850161171f565b91505092915050565b61176a816116fe565b82525050565b600073ffffffffffffffffffffffffffffffffffffffff82169050919050565b600061179b82611770565b9050919050565b6117ab81611790565b82525050565b600081519050919050565b600082825260208201905092915050565b60005b838110156117eb5780820151818401526020810190506117d0565b60008484015250505050565b6000601f19601f8301169050919050565b6000611813826117b1565b61181d81856117bc565b935061182d8185602086016117cd565b611836816117f7565b840191505092915050565b7f4e487b7100000000000000000000000000000000000000000000000000000000600052602160045260246000fd5b6008811061188157611880611841565b5b50565b600081905061189282611870565b919050565b60006118a282611884565b9050919050565b6118b281611897565b82525050565b60008115159050919050565b6118cd816118b8565b82525050565b6000610100820190506118e9600083018b611761565b6118f6602083018a6117a2565b81810360408301526119088189611808565b905061191760608301886118a9565b6119246080830187611761565b61193160a0830186611761565b61193e60c0830185611761565b61194b60e08301846118c4565b9998505050505050505050565b61196181611790565b811461196c57600080fd5b50565b60008135905061197e81611958565b92915050565b6000806040838503121561199b5761199a6116f4565b5b60006119a98582860161196f565b92505060206119ba8582860161171f565b9150509250929050565b60006020820190506119d960008301846118c4565b92915050565b60006020820190506119f46000830184611761565b92915050565b600080fd5b600080fd5b600080fd5b60008083601f840112611a1f57611a1e6119fa565b5b8235905067ffffffffffffffff811115611a3c57611a3b6119ff565b5b602083019150836001820283011115611a5857611a57611a04565b5b9250929050565b60008060208385031215611a7657611a756116f4565b5b600083013567ffffffffffffffff811115611a9457611a936116f9565b5b611aa085828601611a09565b92509250509250929050565b60088110611ab957600080fd5b50565b600081359050611acb81611aac565b92915050565b600060208284031215611ae757611ae66116f4565b5b6000611af584828501611abc565b91505092915050565b6000602082019050611b1360008301846117a2565b92915050565b600060208284031215611b2f57611b2e6116f4565b5b6000611b3d8482850161196f565b91505092915050565b6000608082019050611b5b60008301876118c4565b8181036020830152611b6d8186611808565b9050611b7c6040830185611761565b611b896060830184611761565b95945050505050565b611b9b816118b8565b8114611ba657600080fd5b50565b600081359050611bb881611b92565b92915050565b60008060408385031215611bd557611bd46116f4565b5b6000611be38582860161171f565b9250506020611bf485828601611ba9565b9150509250929050565b7f55736572206e6f74207265676973746572656400000000000000000000000000600082015250565b6000611c346013836117bc565b9150611c3f82611bfe565b602082019050919050565b60006020820190508181036000830152611c6381611c27565b9050919050565b7f496e76616c69642073706f742049440000000000000000000000000000000000600082015250565b6000611ca0600f836117bc565b9150611cab82611c6a565b602082019050919050565b60006020820190508181036000830152611ccf81611c93565b9050919050565b7f4f6e6c79207468652063726561746f722063616e2064656c657465207468697360008201527f2073706f74000000000000000000000000000000000000000000000000000000602082015250565b6000611d326025836117bc565b9150611d3d82611cd6565b604082019050919050565b60006020820190508181036000830152611d6181611d25565b9050919050565b7f53706f7420697320616c726561647920696e6163746976650000000000000000600082015250565b6000611d9e6018836117bc565b9150611da982611d68565b602082019050919050565b60006020820190508181036000830152611dcd81611d91565b9050919050565b7f4e487b7100000000000000000000000000000000000000000000000000000000600052601160045260246000fd5b6000611e0e826116fe565b9150611e19836116fe565b9250828203905081811115611e3157611e30611dd4565b5b92915050565b7f4e487b7100000000000000000000000000000000000000000000000000000000600052602260045260246000fd5b60006002820490506001821680611e7e57607f821691505b602082108103611e9157611e90611e37565b5b50919050565b7f4e6f2066756e647320746f207769746864726177000000000000000000000000600082015250565b6000611ecd6014836117bc565b9150611ed882611e97565b602082019050919050565b60006020820190508181036000830152611efc81611ec0565b9050919050565b7f5573657220616c72656164792072656769737465726564000000000000000000600082015250565b6000611f396017836117bc565b9150611f4482611f03565b602082019050919050565b60006020820190508181036000830152611f6881611f2c565b9050919050565b7f4e487b7100000000000000000000000000000000000000000000000000000000600052604160045260246000fd5b60008190508160005260206000209050919050565b60006020601f8301049050919050565b600082821b905092915050565b6000600883026120007fffffffffffffffffffffffffffffffffffffffffffffffffffffffffffffffff82611fc3565b61200a8683611fc3565b95508019841693508086168417925050509392505050565b6000819050919050565b600061204761204261203d846116fe565b612022565b6116fe565b9050919050565b6000819050919050565b6120618361202c565b61207561206d8261204e565b848454611fd0565b825550505050565b600090565b61208a61207d565b612095818484612058565b505050565b5b818110156120b9576120ae600082612082565b60018101905061209b565b5050565b601f8211156120fe576120cf81611f9e565b6120d884611fb3565b810160208510156120e7578190505b6120fb6120f385611fb3565b83018261209a565b50505b505050565b600082821c905092915050565b600061212160001984600802612103565b1980831691505092915050565b600061213a8383612110565b9150826002028217905092915050565b612153826117b1565b67ffffffffffffffff81111561216c5761216b611f6f565b5b6121768254611e66565b6121818282856120bd565b600060209050601f8311600181146121b457600084156121a2578287015190505b6121ac858261212e565b865550612214565b601f1984166121c286611f9e565b60005b828110156121ea578489015182556001820191506020850194506020810190506121c5565b868310156122075784890151612203601f891682612110565b8355505b6001600288020188555050505b505050505050565b82818337600083830152505050565b600061223783856117bc565b935061224483858461221c565b61224d836117f7565b840190509392505050565b6000602082019050818103600083015261227381848661222b565b90509392505050565b6000612287826116fe565b91507fffffffffffffffffffffffffffffffffffffffffffffffffffffffffffffffff82036122b9576122b8611dd4565b5b600182019050919050565b600081546122d181611e66565b6122db81866117bc565b945060018216600081146122f6576001811461230c5761233f565b60ff19831686528115156020028601935061233f565b61231585611f9e565b60005b8381101561233757815481890152600182019150602081019050612318565b808801955050505b50505092915050565b6000602082019050818103600083015261236281846122c4565b905092915050565b7f416c726561647920766f74656400000000000000000000000000000000000000600082015250565b60006123a0600d836117bc565b91506123ab8261236a565b602082019050919050565b600060208201905081810360008301526123cf81612393565b9050919050565b7f43616e6e6f7420766f7465206f776e2073706f74000000000000000000000000600082015250565b600061240c6014836117bc565b9150612417826123d6565b602082019050919050565b6000602082019050818103600083015261243b816123ff565b9050919050565b7f496e636f727265637420457468657220616d6f756e7400000000000000000000600082015250565b60006124786016836117bc565b915061248382612442565b602082019050919050565b600060208201905081810360008301526124a78161246b565b9050919050565b600081905092915050565b50565b60006124c96000836124ae565b91506124d4826124b9565b600082019050919050565b60006124ea826124bc565b9150819050919050565b7f4574686572207472616e73666572206661696c65640000000000000000000000600082015250565b600061252a6015836117bc565b9150612535826124f4565b602082019050919050565b600060208201905081810360008301526125598161251d565b9050919050565b600061256b826116fe565b91506000820361257e5761257d611dd4565b5b600182039050919050565b7f4e487b7100000000000000000000000000000000000000000000000000000000600052601260045260246000fd5b60006125c3826116fe565b91506125ce836116fe565b9250826125de576125dd612589565b5b828204905092915050565b60006125f4826116fe565b91506125ff836116fe565b925082820190508082111561261757612616611dd4565b5b9291505056fea26469706673582212208bce26d90972c7b804d55d2541914a748ed3586f765e5a527e2662177a72616664736f6c634300081b0033",
  "linkReferences": {},
  "deployedLinkReferences": {}
}